:020000040000FA
:06000000AFEF07F0120053
:020006001200E6
:0800080004EF08F003C000F052
:020010001200DC
:0E0012000100840F0000370000000300000012
:10002000D9CFE6FFE1CFD9FF82E93F0EC716C78CD3
:10003000005003E0200EC66E02D0220EC66E9494CD
:1000400094969488949A080EE66EE66A8FEC07F010
:1000500042E98284828A080EE66EE66A8FEC07F037
:1000600042E941E9E7CFD9FF1200D9CFE6FFE1CF5E
:10007000D9FF82E941E8C950026E9E9600EBC9FFA4
:100080009EA6FED7C95000D042E9E7CFD9FF1200A3
:100090008284E668EADF41E91200D9CFE6FFE1CFCA
:1000A000D9FF86E946E880EB08F081EB09F082EBA6
:1000B0000AF083EB0BF004AE0FD0049EE66AE66A0A
:1000C000E66AE66A770EE66EE8DF45E9076E0750F6
:1000D000010802E2075039D08284E668C6DF41E9B0
:1000E0008294E668C2DF41E904EBE6FFBEDF41E946
:1000F0000BEBE6FFBADF41E90AEBE6FFB6DF41E9C9
:1001000009EBE6FFB2DF41E908EBE6FFAEDF41E9CC
:10011000010E066E400E045C02E1950E066E480E5E
:10012000045C02E1870E066E06EBE6FF9EDF41E906
:100130000A0E066EE66899DF41E9076E800E071425
:1001400002E00606F7E1075000D047E9E7CFD9FF04
:100150001200E6688ADF41E91200D9CFE6FFE1CF5D
:10016000D9FF81E949E88282E66A5ADF41E994943D
:1001700082849488949A828A94968296036A0A0E5C
:10018000035C03E2E6DF032AFAD7056AE66AE66A59
:10019000E66AE66A400EE66E80DF45E9010801E0A6
:1001A00082D0AA0EE66E010EE66EE66AE66A480E98
:1001B000E66E73DF45E9010840E1CBDFCADFE668A0
:1001C00054DF41E9086EE66850DF41E9096E080432
:1001D00033E1AA0E095C30E1016A300E026E015073
:1001E00002100FE0E66AE66AE66A400EE66EE90E85
:1001F000E66E53DF45E9000904E00106000E025AED
:10020000EED70150021018E0E66AE66AE66AE66A8E
:100210007A0EE66E42DF45E900090EE1E66825DF69
:1002200041E9066E96DF95DF94DF400E061402E08A
:100230000C0E01D0040E056E36D0E66AE66AE66A58
:10024000E66AE90EE66E29DF45E9010805E3020EDC
:10025000056EE90E046E04D0010E056E410E046EAB
:10026000016A700E026E015002100EE0E66AE66A44
:10027000E66AE66A04EBE6FF10DF45E9000904E000
:100280000106000E025AEFD7015002100BE0E66A99
:10029000020EE66EE66AE66A500EE66EFEDE45E99E
:1002A000000901E0056AF4DE010EE66EB9DE41E9FF
:1002B0008292055000D04AE9E7CFD9FF1200D9CF8A
:1002C000E6FFE1CFD9FF85E946E88282000118B751
:1002D00010D0D9CFE9FFDACFEAFF090EE76ED89048
:1002E000EF36010EEB36020EEB36030EEB36E70669
:1002F000F6E1010E056E00EBE6FF01EBE6FF02EB17
:10030000E6FF03EBE6FF510EE66EC7DE45E90009A6
:1003100038E1300E076E750E086EE668A6DE41E91C
:10032000066EFF0E065C0BE10706000E085A07EB8F
:1003300000F008EB01F0000100510111EEE1FE0EAA
:10034000065C1FE1000E096E010E0A6E076A086A5C
:10035000000E075C020E085811E2E66886DE41E9ED
:10036000E66E09500724E96E0A500820EA6EE5524D
:10037000E750EF6E072A000E0822EAD7EADEE9DE30
:10038000056A86DE8292055000D047E9E7CFD9FFA3
:100390001200D9CFE6FFE1CFD9FF85E900EBE6FFF8
:1003A00001EBE6FF02EBE6FF03EBE6FF88DF44E943
:1003B000000902E0030E3BD0550E0201FE1902E1D6
:1003C000AA0EFF1902E0020E32D036C100F037C18A
:1003D00001F038C102F039C103F00001036B460E91
:1003E0000001001907E1410E011904E1540E021940
:1003F00001E1035102E1000E1AD052C100F053C1D5
:1004000001F054C102F055C103F00001036B460E28
:100410000001001907E1410E011904E1540E02190F
:1004200001E1035102E1000E02D0010E00D041E9CA
:10043000E7CFD9FF1200D9CFE6FFE1CFD9FF81E99D
:1004400053E8046A056A066A076A04EBE6FF05EBEF
:10045000E6FF06EBE6FF07EBE6FF9BDF44E9000162
:10046000196F0001190526E1BE0E016E020E026E23
:10047000040E0124E96E000E0220EA6EEF501AE02D
:10048000080E0124E96E000E0220EA6EEE50046EA2
:10049000EE50056EEE50066EEF50076E04EBE6FF71
:1004A00005EBE6FF06EBE6FF07EBE6FF72DF44E94C
:1004B0000001196F030E0001195D02E1010E7BD1ED
:1004C0000001195106E101010B5102E1020E0C1964
:1004D00002E0070E70D101011651086E1751096E26
:1004E0000A6A0B6A085009100A100B1009E1010191
:1004F0002451086E2551096E26510A6E27510B6E44
:1005000010C1E6FFE66AE66AE66A08EBE6FF09EB79
:10051000E6FF0AEBE6FF0BEBE6FFD0EC06F0E55258
:10052000E5500B6EE5500A6EE550096EE750086E17
:100530000EC100F00FC101F00001026B036BD95036
:10054000040FE96EDACFEAFFEE5000010027EE500B
:1005500000010123EE5000010223EE5000010323AD
:1005600000C01BF001C01CF002C01DF003C01EF053
:100570000DC11AF011C127F012C128F0040E0F0BA3
:10058000000105E0D89028332733E806FBE101019C
:1005900013510C6E14510D6E0E6A0F6A0C500D1033
:1005A0000E100F1009E1010120510C6E21510D6E4A
:1005B00022510E6E23510F6E1AC0E6FFE66AE66AFC
:1005C000E66A0EC110F00FC111F00001126B136B3F
:1005D000D9500C0FE96EDACFEAFF00011051EE5C42
:1005E00000010C6F00011151EE5800010D6F000168
:1005F0001251EE5800010E6F00011351EE58000128
:100600000F6FD950080FE96EDACFEAFFEE50000104
:100610000C5D0001086FEE5000010D590001096FDB
:10062000EE5000010E5900010A6FEE5000010F5903
:1006300000010B6F27C014F028C015F00001166BE5
:10064000176B000114510001085D0001046F0001E7
:100650001551000109590001056F000116510001F3
:100660000A590001066F0001175100010B590001E2
:10067000076F04C0E6FF05C0E6FF06C0E6FF07C03F
:10068000E6FF8AEC06F0E552E5CF03F0E5CF02F095
:10069000E5CF01F0E7CF00F0020E00010027000EC9
:1006A00000010123000E00010223000E00010323BC
:1006B00000010051106E0151116E0251126E035172
:1006C000136E0001010E196F1050F7080F0E115430
:1006D000000E1254000E135403E20001020E196FB3
:1006E0001050F708FF0E1154000E1254000E135450
:1006F00003E20001030E196F030E0001195D09E109
:100700002CC11FF02DC120F02EC121F02FC122F0ED
:1007100019D0D950080FE96EDACFEAFF00011B515A
:10072000EE2400011F6F00011C51EE200001206F1C
:1007300000011D51EE200001216F00011E51EE202D
:100740000001226F08EB00F009EB01F00AEB02F068
:100750000BEB03F01B0EE96E000EEA6EEE5000018B
:100760000027EE5000010123EE5000010223EE505D
:100770000001032327C004F028C005F00001066B28
:10078000076B000104510001002700010551000121
:10079000012300010651000102230001075100015D
:1007A000032300C023F001C024F002C025F003C0E1
:1007B00026F0000E00D054E9E7CFD9FF1200D9CFC0
:1007C000E6FFE1CFD9FF85E946E8076A086A096ACA
:1007D0000A6A080E095C000E0A5850E200EBF6FFA8
:1007E00001EBF7FF02EBF8FFA68EA684A688A69C75
:1007F000550EA76EAA0EA76EA6820000A694056AE3
:10080000080E055C37E200EBF6FF01EBF7FF02EBA9
:10081000F8FF066A080E065C0EE2000E0724E96E79
:10082000010E0820EA6EEF50F56E0D00072A000E4B
:100830000822062AEFD7080EF65E000EF75A000EC1
:10084000F85AA68EA684A69CA698550EA76EAA0E48
:10085000A76EA6820000A694D9CFE9FFDACFEAFFFF
:10086000080EEE26000EEE22000EEE22000EEE2204
:10087000052AC6D7092A000E0A22ABD747E9E7CFD7
:10088000D9FF1200D9CFE6FFE1CFD9FF84E90001FB
:1008900000EB03F0026B000101EB00F0016B0001C3
:1008A000005100010211006E0351016E0250001A46
:1008B000000E011AFF0E0014E8380F0B001A000E8C
:1008C000011A000100EB03F0026B040E02C000F0FD
:1008D00003C001F0000A06E00001D890003701379C
:1008E000E804FBE100010051001A0151011AFF0E5A
:1008F00000010014026F036B040E02C000F003C07D
:1009000001F0000A06E00001D89000370137E80442
:10091000FBE10001D8900037013700010051001AB7
:100920000151011A00EBF3FF01EBF4FF00D041E9A4
:10093000E7CFD9FF1200D9CFE6FFE1CFD9FF81E998
:1009400058E8700ED36E400E9B6E0F0EC16E070EF0
:10095000B46EDF0E926EF19E9368829082929490B4
:100960009492A968A69EA69CA680A850036E03AA8E
:1009700002D080989298800E031404E1800E8114B6
:1009800001E0B6D1ADEC00F00001186F0001185184
:1009900002E100EF08F04FDD000902E000EF08F08F
:1009A00000012751281101E1A3D11FC0E6FF20C09B
:1009B000E6FF21C0E6FF22C0E6FF81DC44E900013A
:1009C0001F2B000E202321232223016A026AD890C4
:1009D000025004E6000E015C020E025801E387D1CA
:1009E0000B0EE66EE66A37C0E6FF38C0E6FF39C098
:1009F000E6FF0001000E0124006F010E0220016FCE
:100A000000C0E6FF01C0E6FF70EC07F047E9046EA6
:100A1000056AE8BE05680450051001E05BD10C686A
:100A20000D680F6A100E106E000E0124E96E010EA3
:100A30000220EA6E140EE926000EEA22EECF00F044
:100A4000EFCF01F00001026B036B100E1F0B08E0EB
:100A50000001D8900037013702370337E806F9E183
:100A6000000E0124E96E010E0220EA6E1A0EE9263C
:100A7000000EEA22EECF04F0EFCF05F00001066B86
:100A8000076B000104510001001300010551000132
:100A9000011300010651000102130001075100017A
:100AA000031300010051156E0151166E0251176EAD
:100AB0000351186ED950150FE96EDACFEAFF020E16
:100AC000EE5E000EEE5A000EEE5A000EEE5A1AC0FE
:100AD000E6FFE66AE66AE66A15EBE6FF16EBE6FF76
:100AE00017EBE6FF18EBE6FFD0EC06F0E552E5CF9A
:100AF00003F0E5CF02F0E5CF01F0E7CF00F0000111
:100B000023510001002700012451000101230001AD
:100B10002551000102230001265100010323000199
:100B20000051156E0151166E0251176E0351186E69
:100B3000000E0124E96E010E0220EA6E1C0EE92669
:100B4000000EEA22EE50116EEE50126EEE50136E51
:100B5000EF50146ED950110FE96EDACFEAFFEE5262
:100B6000020EEE5E000EEE5A000EEE5AD950150F30
:100B7000E96EDACFEAFFEFCF00F0EE2A000EEFCFFA
:100B800001F0EE22EFCF02F0EE22EFCF03F0EF22E2
:100B900000C0E6FF01C0E6FF02C0E6FF03C0E6FFBB
:100BA0005FEC01F044E901010051086E0151096E4A
:100BB00002510A6E03510B6E01010451066E05517C
:100BC000076E016A026AD890025004E6000E015CCA
:100BD000200E025819E20F500124F66E1050022028
:100BE000F76E0800F5500E6E0CEBE6FF0DEBE6FF1E
:100BF0000EEBE6FF47DE43E9F3500C6EF4500D6E4A
:100C0000012A000E0222DFD7530E081808E14D0E0C
:100C1000091805E1420E0A1802E1210E0B1806E13F
:100C200006500C1802E107500D1802E100EF08F021
:100C30008280086A100E096E0A6A0B6A11EB00F0D6
:100C400012EB01F013EB02F014EB03F0100E0001B5
:100C50000127000E00010223000E00010323000102
:100C60000051085C0151095802510A5803510B58B0
:100C70002EE2828215EBE6FF16EBE6FF17EBE6FFAE
:100C800018EBE6FF5FEC01F044E9D950150FE96E6F
:100C9000DACFEAFFEE2A000EEE22EE22EE22829258
:100CA00008EBE6FF09EBE6FF0AEBE6FF0BEBE6FFDE
:100CB00086DD44E9D950080FE96EDACFEAFFEE523B
:100CC000020EEE26000EEE22000EEE22B7D7829024
:100CD00000EF08F0200E0126000E0222000127512D
:100CE000281104E000012707000E285B70D658D6B3
:0C0CF00000EF08F059E9E7CFD9FF12002F
:040CFC0045E8D9CF1F
:100D0000E6FFDACFE6FFE1CFD9FFE2CFDAFF8FE9E6
:100D10000C6A1200F3DF0C8003D0F0DF01D00C82EC
:100D20000B6A0A6A096A086A200EE76ED8900436D0
:100D3000053606360736083609360A360B360050B1
:100D4000085C0150095802500A5803500B5809E337
:100D50000050085E0150095A02500A5A03500B5ABB
:100D6000042AE72EE4D70CB212000CB00AD088EBAC
:100D700000F089EB01F08AEB02F08BEB03F00CA0A2
:100D800008D084EB00F085EB01F086EB02F087EBF6
:100D900003F0E552E5CFDAFFE7CFD9FF49E91200CA
:100DA00044E8D9CFE6FFDACFE6FFE1CFD9FFE2CFC3
:100DB000DAFF8EE980EB08F081EB09F082EB0AF0B4
:100DC00083EB0BF004500802F350006EF450016EF8
:100DD00004500902F3500126000EF420026E045064
:100DE0000A02F3500226000EF420036E04500B0298
:100DF000F350032605500802F3500126F450022256
:100E0000000E032205500902F3500226F45003227B
:100E100005500A02F350032606500802F35002263A
:100E2000F450032206500902F3500326075008022B
:100E3000F3500326E552E5CFDAFFE7CFD9FF48E9C3
:020E4000000CA4
:0E0E4200120EF66E000EF76E000EF86E000136
:100E50000900F5502E6F0900F5502F6F03E12E6742
:100E600001D03DD00900F550296F0900F5502A6FD7
:100E70000900F5502B6F09000900F550E96E0900D3
:100E8000F550EA6E090009000900F5502C6F0900C1
:100E9000F5502D6F09000900F6CF30F0F7CF31F093
:100EA000F8CF32F029C0F6FF2AC0F7FF2BC0F8FFB9
:100EB00000012C5302E12D5307E00900F550EE6EBE
:100EC0002C07F8E22D07F9D730C0F6FF31C0F7FF45
:100ED00032C0F8FF00012E07000E2F5BBFD71200B3
:100EE000FB0EE3CFF6FFFC0EE3CFF7FFFD0EE3CFE3
:100EF000F8FFFE0EE3CFE9FFFF0EE3CFEAFFF90EA6
:100F0000E35003E1FA0EE35009E0F90EE30602E2D2
:0E0F1000FA0EE3060900F550EE5CF1E0120067
:020F1E00FF0EC4
:100F2000E35000013B6F480E01D04C0EE76EE72EF8
:0E0F3000FED7E76AE72EFED73B2FF7D7120059
:020F3E00800E23
:100F4000F36E00EE00F00F0E01D81200EA6002D03E
:0E0F5000EE6AFCD7F350E9601200EE6AFCD79F
:020F5E001EEE85
:100F600000F02EEE00F0F86A21EC07F003EC00F040
:080F70009BEC04F0FBD712001A
:080F780041544F4D4D43563327
:040F800042494E0094
:030F8400780F00E3
:04100000FF001200DB
:020000040030CA
:0100010008F6
:0100020000FD
:0100030000FC
:010005008179
:01000600C138
:010008000FE8
:01000900C036
:01000A000FE6
:01000B00E014
:01000C000FE4
:01000D0040B2
:00000001FF
